{
  "contracts/MinimalContract.sol": {
    "MinimalContract": {
      "abi": [
        {
          "inputs": [],
          "stateMutability": "nonpayable",
          "type": "constructor"
        },
        {
          "inputs": [],
          "name": "value",
          "outputs": [
            {
              "internalType": "uint256",
              "name": "",
              "type": "uint256"
            }
          ],
          "stateMutability": "view",
          "type": "function"
        }
      ],
      "evm": {
        "bytecode": {
          "linkReferences": {},
          "object": "60808060405234601857602a600055607a9081601e8239f35b600080fdfe6080806040526004361015601257600080fd5b60003560e01c633fa4f24514602657600080fd5b34603f576000366003190112603f576020906000548152f35b600080fdfea2646970667358221220becaa8d78df14fe8129632682a22f9bdb4122fba27acf91384c139a934812fdd64736f6c634300081c0033",
          "opcodes": "PUSH1 0x80 DUP1 PUSH1 0x40 MSTORE CALLVALUE PUSH1 0x18 JUMPI PUSH1 0x2A PUSH1 0x0 SSTORE PUSH1 0x7A SWAP1 DUP2 PUSH1 0x1E DUP3 CODECOPY RETURN JUMPDEST PUSH1 0x0 DUP1 REVERT INVALID PUSH1 0x80 DUP1 PUSH1 0x40 MSTORE PUSH1 0x4 CALLDATASIZE LT ISZERO PUSH1 0x12 JUMPI PUSH1 0x0 DUP1 REVERT JUMPDEST PUSH1 0x0 CALLDATALOAD PUSH1 0xE0 SHR PUSH4 0x3FA4F245 EQ PUSH1 0x26 JUMPI PUSH1 0x0 DUP1 REVERT JUMPDEST CALLVALUE PUSH1 0x3F JUMPI PUSH1 0x0 CALLDATASIZE PUSH1 0x3 NOT ADD SLT PUSH1 0x3F JUMPI PUSH1 0x20 SWAP1 PUSH1 0x0 SLOAD DUP2 MSTORE RETURN JUMPDEST PUSH1 0x0 DUP1 REVERT INVALID LOG2 PUSH5 0x6970667358 0x22 SLT KECCAK256 0xBE 0xCA 0xA8 0xD7 DUP14 CALL 0x4F 0xE8 SLT SWAP7 ORIGIN PUSH9 0x2A22F9BDB4122FBA27 0xAC 0xF9 SGT DUP5 0xC1 CODECOPY 0xA9 CALLVALUE DUP2 0x2F 0xDD PUSH5 0x736F6C6343 STOP ADDMOD SHR STOP CALLER "
        },
        "methodIdentifiers": {
          "value()": "3fa4f245"
        }
      }
    }
  }
}